{
	"Bloque 5 Remix/CryptoBank/CryptoBank.sol": {
		"CryptoBank": {
			"abi": [
				{
					"inputs": [
						{
							"internalType": "uint256",
							"name": "maxBalance_",
							"type": "uint256"
						},
						{
							"internalType": "address",
							"name": "admin_",
							"type": "address"
						}
					],
					"stateMutability": "nonpayable",
					"type": "constructor"
				},
				{
					"anonymous": false,
					"inputs": [
						{
							"indexed": false,
							"internalType": "address",
							"name": "user_",
							"type": "address"
						},
						{
							"indexed": false,
							"internalType": "uint256",
							"name": "etherAmount_",
							"type": "uint256"
						}
					],
					"name": "etherDeposited",
					"type": "event"
				},
				{
					"anonymous": false,
					"inputs": [
						{
							"indexed": false,
							"internalType": "address",
							"name": "user_",
							"type": "address"
						},
						{
							"indexed": false,
							"internalType": "uint256",
							"name": "etherAmount_",
							"type": "uint256"
						}
					],
					"name": "etherWithdrawn",
					"type": "event"
				},
				{
					"inputs": [],
					"name": "admin",
					"outputs": [
						{
							"internalType": "address",
							"name": "",
							"type": "address"
						}
					],
					"stateMutability": "view",
					"type": "function"
				},
				{
					"inputs": [],
					"name": "depositEther",
					"outputs": [],
					"stateMutability": "payable",
					"type": "function"
				},
				{
					"inputs": [],
					"name": "maxBalance",
					"outputs": [
						{
							"internalType": "uint256",
							"name": "",
							"type": "uint256"
						}
					],
					"stateMutability": "view",
					"type": "function"
				},
				{
					"inputs": [
						{
							"internalType": "uint256",
							"name": "newMaxBalance_",
							"type": "uint256"
						}
					],
					"name": "modifyMaxBalance",
					"outputs": [],
					"stateMutability": "nonpayable",
					"type": "function"
				},
				{
					"inputs": [
						{
							"internalType": "address",
							"name": "",
							"type": "address"
						}
					],
					"name": "userBalance",
					"outputs": [
						{
							"internalType": "uint256",
							"name": "",
							"type": "uint256"
						}
					],
					"stateMutability": "view",
					"type": "function"
				},
				{
					"inputs": [
						{
							"internalType": "uint256",
							"name": "amount_",
							"type": "uint256"
						}
					],
					"name": "withdrawEther",
					"outputs": [],
					"stateMutability": "nonpayable",
					"type": "function"
				}
			],
			"devdoc": {
				"kind": "dev",
				"methods": {},
				"version": 1
			},
			"evm": {
				"assembly": "    /* \"Bloque 5 Remix/CryptoBank/CryptoBank.sol\":697:2320  contract CryptoBank{... */\n  mstore(0x40, 0x80)\n    /* \"Bloque 5 Remix/CryptoBank/CryptoBank.sol\":1103:1219  constructor(uint256 maxBalance_, address admin_){... */\n  callvalue\n  dup1\n  iszero\n  tag_1\n  jumpi\n  revert(0x00, 0x00)\ntag_1:\n  pop\n  mload(0x40)\n  sub(codesize, bytecodeSize)\n  dup1\n  bytecodeSize\n  dup4\n  codecopy\n  dup2\n  dup2\n  add\n  0x40\n  mstore\n  dup2\n  add\n  swap1\n  tag_2\n  swap2\n  swap1\n  tag_3\n  jump\t// in\ntag_2:\n    /* \"Bloque 5 Remix/CryptoBank/CryptoBank.sol\":1175:1186  maxBalance_ */\n  dup2\n    /* \"Bloque 5 Remix/CryptoBank/CryptoBank.sol\":1162:1172  maxBalance */\n  0x00\n    /* \"Bloque 5 Remix/CryptoBank/CryptoBank.sol\":1162:1186  maxBalance = maxBalance_ */\n  dup2\n  swap1\n  sstore\n  pop\n    /* \"Bloque 5 Remix/CryptoBank/CryptoBank.sol\":1205:1211  admin_ */\n  dup1\n    /* \"Bloque 5 Remix/CryptoBank/CryptoBank.sol\":1197:1202  admin */\n  0x01\n  0x00\n    /* \"Bloque 5 Remix/CryptoBank/CryptoBank.sol\":1197:1211  admin = admin_ */\n  0x0100\n  exp\n  dup2\n  sload\n  dup2\n  0xffffffffffffffffffffffffffffffffffffffff\n  mul\n  not\n  and\n  swap1\n  dup4\n  0xffffffffffffffffffffffffffffffffffffffff\n  and\n  mul\n  or\n  swap1\n  sstore\n  pop\n    /* \"Bloque 5 Remix/CryptoBank/CryptoBank.sol\":1103:1219  constructor(uint256 maxBalance_, address admin_){... */\n  pop\n  pop\n    /* \"Bloque 5 Remix/CryptoBank/CryptoBank.sol\":697:2320  contract CryptoBank{... */\n  jump(tag_6)\n    /* \"#utility.yul\":88:205   */\ntag_8:\n    /* \"#utility.yul\":197:198   */\n  0x00\n    /* \"#utility.yul\":194:195   */\n  0x00\n    /* \"#utility.yul\":187:199   */\n  revert\n    /* \"#utility.yul\":334:411   */\ntag_10:\n    /* \"#utility.yul\":371:378   */\n  0x00\n    /* \"#utility.yul\":400:405   */\n  dup2\n    /* \"#utility.yul\":389:405   */\n  swap1\n  pop\n    /* \"#utility.yul\":334:411   */\n  swap2\n  swap1\n  pop\n  jump\t// out\n    /* \"#utility.yul\":417:539   */\ntag_11:\n    /* \"#utility.yul\":490:514   */\n  tag_23\n    /* \"#utility.yul\":508:513   */\n  dup2\n    /* \"#utility.yul\":490:514   */\n  tag_10\n  jump\t// in\ntag_23:\n    /* \"#utility.yul\":483:488   */\n  dup2\n    /* \"#utility.yul\":480:515   */\n  eq\n    /* \"#utility.yul\":470:533   */\n  tag_24\n  jumpi\n    /* \"#utility.yul\":529:530   */\n  0x00\n    /* \"#utility.yul\":526:527   */\n  0x00\n    /* \"#utility.yul\":519:531   */\n  revert\n    /* \"#utility.yul\":470:533   */\ntag_24:\n    /* \"#utility.yul\":417:539   */\n  pop\n  jump\t// out\n    /* \"#utility.yul\":545:688   */\ntag_12:\n    /* \"#utility.yul\":602:607   */\n  0x00\n    /* \"#utility.yul\":633:639   */\n  dup2\n    /* \"#utility.yul\":627:640   */\n  mload\n    /* \"#utility.yul\":618:640   */\n  swap1\n  pop\n    /* \"#utility.yul\":649:682   */\n  tag_26\n    /* \"#utility.yul\":676:681   */\n  dup2\n    /* \"#utility.yul\":649:682   */\n  tag_11\n  jump\t// in\ntag_26:\n    /* \"#utility.yul\":545:688   */\n  swap3\n  swap2\n  pop\n  pop\n  jump\t// out\n    /* \"#utility.yul\":694:820   */\ntag_13:\n    /* \"#utility.yul\":731:738   */\n  0x00\n    /* \"#utility.yul\":771:813   */\n  0xffffffffffffffffffffffffffffffffffffffff\n    /* \"#utility.yul\":764:769   */\n  dup3\n    /* \"#utility.yul\":760:814   */\n  and\n    /* \"#utility.yul\":749:814   */\n  swap1\n  pop\n    /* \"#utility.yul\":694:820   */\n  swap2\n  swap1\n  pop\n  jump\t// out\n    /* \"#utility.yul\":826:922   */\ntag_14:\n    /* \"#utility.yul\":863:870   */\n  0x00\n    /* \"#utility.yul\":892:916   */\n  tag_29\n    /* \"#utility.yul\":910:915   */\n  dup3\n    /* \"#utility.yul\":892:916   */\n  tag_13\n  jump\t// in\ntag_29:\n    /* \"#utility.yul\":881:916   */\n  swap1\n  pop\n    /* \"#utility.yul\":826:922   */\n  swap2\n  swap1\n  pop\n  jump\t// out\n    /* \"#utility.yul\":928:1050   */\ntag_15:\n    /* \"#utility.yul\":1001:1025   */\n  tag_31\n    /* \"#utility.yul\":1019:1024   */\n  dup2\n    /* \"#utility.yul\":1001:1025   */\n  tag_14\n  jump\t// in\ntag_31:\n    /* \"#utility.yul\":994:999   */\n  dup2\n    /* \"#utility.yul\":991:1026   */\n  eq\n    /* \"#utility.yul\":981:1044   */\n  tag_32\n  jumpi\n    /* \"#utility.yul\":1040:1041   */\n  0x00\n    /* \"#utility.yul\":1037:1038   */\n  0x00\n    /* \"#utility.yul\":1030:1042   */\n  revert\n    /* \"#utility.yul\":981:1044   */\ntag_32:\n    /* \"#utility.yul\":928:1050   */\n  pop\n  jump\t// out\n    /* \"#utility.yul\":1056:1199   */\ntag_16:\n    /* \"#utility.yul\":1113:1118   */\n  0x00\n    /* \"#utility.yul\":1144:1150   */\n  dup2\n    /* \"#utility.yul\":1138:1151   */\n  mload\n    /* \"#utility.yul\":1129:1151   */\n  swap1\n  pop\n    /* \"#utility.yul\":1160:1193   */\n  tag_34\n    /* \"#utility.yul\":1187:1192   */\n  dup2\n    /* \"#utility.yul\":1160:1193   */\n  tag_15\n  jump\t// in\ntag_34:\n    /* \"#utility.yul\":1056:1199   */\n  swap3\n  swap2\n  pop\n  pop\n  jump\t// out\n    /* \"#utility.yul\":1205:1712   */\ntag_3:\n    /* \"#utility.yul\":1284:1290   */\n  0x00\n    /* \"#utility.yul\":1292:1298   */\n  0x00\n    /* \"#utility.yul\":1341:1343   */\n  0x40\n    /* \"#utility.yul\":1329:1338   */\n  dup4\n    /* \"#utility.yul\":1320:1327   */\n  dup6\n    /* \"#utility.yul\":1316:1339   */\n  sub\n    /* \"#utility.yul\":1312:1344   */\n  slt\n    /* \"#utility.yul\":1309:1428   */\n  iszero\n  tag_36\n  jumpi\n    /* \"#utility.yul\":1347:1426   */\n  tag_37\n  tag_8\n  jump\t// in\ntag_37:\n    /* \"#utility.yul\":1309:1428   */\ntag_36:\n    /* \"#utility.yul\":1467:1468   */\n  0x00\n    /* \"#utility.yul\":1492:1556   */\n  tag_38\n    /* \"#utility.yul\":1548:1555   */\n  dup6\n    /* \"#utility.yul\":1539:1545   */\n  dup3\n    /* \"#utility.yul\":1528:1537   */\n  dup7\n    /* \"#utility.yul\":1524:1546   */\n  add\n    /* \"#utility.yul\":1492:1556   */\n  tag_12\n  jump\t// in\ntag_38:\n    /* \"#utility.yul\":1482:1556   */\n  swap3\n  pop\n    /* \"#utility.yul\":1438:1566   */\n  pop\n    /* \"#utility.yul\":1605:1607   */\n  0x20\n    /* \"#utility.yul\":1631:1695   */\n  tag_39\n    /* \"#utility.yul\":1687:1694   */\n  dup6\n    /* \"#utility.yul\":1678:1684   */\n  dup3\n    /* \"#utility.yul\":1667:1676   */\n  dup7\n    /* \"#utility.yul\":1663:1685   */\n  add\n    /* \"#utility.yul\":1631:1695   */\n  tag_16\n  jump\t// in\ntag_39:\n    /* \"#utility.yul\":1621:1695   */\n  swap2\n  pop\n    /* \"#utility.yul\":1576:1705   */\n  pop\n    /* \"#utility.yul\":1205:1712   */\n  swap3\n  pop\n  swap3\n  swap1\n  pop\n  jump\t// out\n    /* \"Bloque 5 Remix/CryptoBank/CryptoBank.sol\":697:2320  contract CryptoBank{... */\ntag_6:\n  dataSize(sub_0)\n  dup1\n  dataOffset(sub_0)\n  0x00\n  codecopy\n  0x00\n  return\nstop\n\nsub_0: assembly {\n        /* \"Bloque 5 Remix/CryptoBank/CryptoBank.sol\":697:2320  contract CryptoBank{... */\n      mstore(0x40, 0x80)\n      jumpi(tag_1, lt(calldatasize, 0x04))\n      shr(0xe0, calldataload(0x00))\n      dup1\n      0x0103c92b\n      eq\n      tag_2\n      jumpi\n      dup1\n      0x3bed33ce\n      eq\n      tag_3\n      jumpi\n      dup1\n      0x73ad468a\n      eq\n      tag_4\n      jumpi\n      dup1\n      0x98ea5fca\n      eq\n      tag_5\n      jumpi\n      dup1\n      0xa2ccd6ba\n      eq\n      tag_6\n      jumpi\n      dup1\n      0xf851a440\n      eq\n      tag_7\n      jumpi\n    tag_1:\n      revert(0x00, 0x00)\n        /* \"Bloque 5 Remix/CryptoBank/CryptoBank.sol\":784:830  mapping(address => uint256) public userBalance */\n    tag_2:\n      callvalue\n      dup1\n      iszero\n      tag_8\n      jumpi\n      revert(0x00, 0x00)\n    tag_8:\n      pop\n      tag_9\n      0x04\n      dup1\n      calldatasize\n      sub\n      dup2\n      add\n      swap1\n      tag_10\n      swap2\n      swap1\n      tag_11\n      jump\t// in\n    tag_10:\n      tag_12\n      jump\t// in\n    tag_9:\n      mload(0x40)\n      tag_13\n      swap2\n      swap1\n      tag_14\n      jump\t// in\n    tag_13:\n      mload(0x40)\n      dup1\n      swap2\n      sub\n      swap1\n      return\n        /* \"Bloque 5 Remix/CryptoBank/CryptoBank.sol\":1629:2169  function withdrawEther(uint256 amount_) external {      //CEI pattern : 1. Checks 2. Update State 3. Interactions... */\n    tag_3:\n      callvalue\n      dup1\n      iszero\n      tag_15\n      jumpi\n      revert(0x00, 0x00)\n    tag_15:\n      pop\n      tag_16\n      0x04\n      dup1\n      calldatasize\n      sub\n      dup2\n      add\n      swap1\n      tag_17\n      swap2\n      swap1\n      tag_18\n      jump\t// in\n    tag_17:\n      tag_19\n      jump\t// in\n    tag_16:\n      stop\n        /* \"Bloque 5 Remix/CryptoBank/CryptoBank.sol\":725:750  uint256 public maxBalance */\n    tag_4:\n      callvalue\n      dup1\n      iszero\n      tag_20\n      jumpi\n      revert(0x00, 0x00)\n    tag_20:\n      pop\n      tag_21\n      tag_22\n      jump\t// in\n    tag_21:\n      mload(0x40)\n      tag_23\n      swap2\n      swap1\n      tag_14\n      jump\t// in\n    tag_23:\n      mload(0x40)\n      dup1\n      swap2\n      sub\n      swap1\n      return\n        /* \"Bloque 5 Remix/CryptoBank/CryptoBank.sol\":1263:1603  function depositEther() external payable{   //poner function depositEther(uint256 amount_) supondría una vulnerabilidad crítica... */\n    tag_5:\n      tag_24\n      tag_25\n      jump\t// in\n    tag_24:\n      stop\n        /* \"Bloque 5 Remix/CryptoBank/CryptoBank.sol\":2201:2315  function modifyMaxBalance(uint256 newMaxBalance_) external onlyAdmin{... */\n    tag_6:\n      callvalue\n      dup1\n      iszero\n      tag_26\n      jumpi\n      revert(0x00, 0x00)\n    tag_26:\n      pop\n      tag_27\n      0x04\n      dup1\n      calldatasize\n      sub\n      dup2\n      add\n      swap1\n      tag_28\n      swap2\n      swap1\n      tag_18\n      jump\t// in\n    tag_28:\n      tag_29\n      jump\t// in\n    tag_27:\n      stop\n        /* \"Bloque 5 Remix/CryptoBank/CryptoBank.sol\":757:777  address public admin */\n    tag_7:\n      callvalue\n      dup1\n      iszero\n      tag_30\n      jumpi\n      revert(0x00, 0x00)\n    tag_30:\n      pop\n      tag_31\n      tag_32\n      jump\t// in\n    tag_31:\n      mload(0x40)\n      tag_33\n      swap2\n      swap1\n      tag_34\n      jump\t// in\n    tag_33:\n      mload(0x40)\n      dup1\n      swap2\n      sub\n      swap1\n      return\n        /* \"Bloque 5 Remix/CryptoBank/CryptoBank.sol\":784:830  mapping(address => uint256) public userBalance */\n    tag_12:\n      mstore(0x20, 0x02)\n      dup1\n      0x00\n      mstore\n      keccak256(0x00, 0x40)\n      0x00\n      swap2\n      pop\n      swap1\n      pop\n      sload\n      dup2\n      jump\t// out\n        /* \"Bloque 5 Remix/CryptoBank/CryptoBank.sol\":1629:2169  function withdrawEther(uint256 amount_) external {      //CEI pattern : 1. Checks 2. Update State 3. Interactions... */\n    tag_19:\n        /* \"Bloque 5 Remix/CryptoBank/CryptoBank.sol\":1822:1829  amount_ */\n      dup1\n        /* \"Bloque 5 Remix/CryptoBank/CryptoBank.sol\":1795:1806  userBalance */\n      0x02\n        /* \"Bloque 5 Remix/CryptoBank/CryptoBank.sol\":1795:1818  userBalance[msg.sender] */\n      0x00\n        /* \"Bloque 5 Remix/CryptoBank/CryptoBank.sol\":1807:1817  msg.sender */\n      caller\n        /* \"Bloque 5 Remix/CryptoBank/CryptoBank.sol\":1795:1818  userBalance[msg.sender] */\n      0xffffffffffffffffffffffffffffffffffffffff\n      and\n      0xffffffffffffffffffffffffffffffffffffffff\n      and\n      dup2\n      mstore\n      0x20\n      add\n      swap1\n      dup2\n      mstore\n      0x20\n      add\n      0x00\n      keccak256\n      sload\n        /* \"Bloque 5 Remix/CryptoBank/CryptoBank.sol\":1795:1829  userBalance[msg.sender] >= amount_ */\n      lt\n      iszero\n        /* \"Bloque 5 Remix/CryptoBank/CryptoBank.sol\":1787:1854  require(userBalance[msg.sender] >= amount_, \"Insufficient balance\") */\n      tag_36\n      jumpi\n      mload(0x40)\n      0x08c379a000000000000000000000000000000000000000000000000000000000\n      dup2\n      mstore\n      0x04\n      add\n      tag_37\n      swap1\n      tag_38\n      jump\t// in\n    tag_37:\n      mload(0x40)\n      dup1\n      swap2\n      sub\n      swap1\n      revert\n    tag_36:\n        /* \"Bloque 5 Remix/CryptoBank/CryptoBank.sol\":1940:1947  amount_ */\n      dup1\n        /* \"Bloque 5 Remix/CryptoBank/CryptoBank.sol\":1913:1924  userBalance */\n      0x02\n        /* \"Bloque 5 Remix/CryptoBank/CryptoBank.sol\":1913:1936  userBalance[msg.sender] */\n      0x00\n        /* \"Bloque 5 Remix/CryptoBank/CryptoBank.sol\":1925:1935  msg.sender */\n      caller\n        /* \"Bloque 5 Remix/CryptoBank/CryptoBank.sol\":1913:1936  userBalance[msg.sender] */\n      0xffffffffffffffffffffffffffffffffffffffff\n      and\n      0xffffffffffffffffffffffffffffffffffffffff\n      and\n      dup2\n      mstore\n      0x20\n      add\n      swap1\n      dup2\n      mstore\n      0x20\n      add\n      0x00\n      keccak256\n      0x00\n        /* \"Bloque 5 Remix/CryptoBank/CryptoBank.sol\":1913:1947  userBalance[msg.sender] -= amount_ */\n      dup3\n      dup3\n      sload\n      tag_39\n      swap2\n      swap1\n      tag_40\n      jump\t// in\n    tag_39:\n      swap3\n      pop\n      pop\n      dup2\n      swap1\n      sstore\n      pop\n        /* \"Bloque 5 Remix/CryptoBank/CryptoBank.sol\":2006:2018  bool success */\n      0x00\n        /* \"Bloque 5 Remix/CryptoBank/CryptoBank.sol\":2024:2034  msg.sender */\n      caller\n        /* \"Bloque 5 Remix/CryptoBank/CryptoBank.sol\":2024:2039  msg.sender.call */\n      0xffffffffffffffffffffffffffffffffffffffff\n      and\n        /* \"Bloque 5 Remix/CryptoBank/CryptoBank.sol\":2047:2054  amount_ */\n      dup3\n        /* \"Bloque 5 Remix/CryptoBank/CryptoBank.sol\":2024:2059  msg.sender.call{value: amount_}(\"\") */\n      mload(0x40)\n      tag_41\n      swap1\n      tag_42\n      jump\t// in\n    tag_41:\n      0x00\n      mload(0x40)\n      dup1\n      dup4\n      sub\n      dup2\n      dup6\n      dup8\n      gas\n      call\n      swap3\n      pop\n      pop\n      pop\n      returndatasize\n      dup1\n      0x00\n      dup2\n      eq\n      tag_45\n      jumpi\n      mload(0x40)\n      swap2\n      pop\n      and(add(returndatasize, 0x3f), not(0x1f))\n      dup3\n      add\n      0x40\n      mstore\n      returndatasize\n      dup3\n      mstore\n      returndatasize\n      0x00\n      0x20\n      dup5\n      add\n      returndatacopy\n      jump(tag_44)\n    tag_45:\n      0x60\n      swap2\n      pop\n    tag_44:\n      pop\n        /* \"Bloque 5 Remix/CryptoBank/CryptoBank.sol\":2005:2059  (bool success, ) = msg.sender.call{value: amount_}(\"\") */\n      pop\n      swap1\n      pop\n        /* \"Bloque 5 Remix/CryptoBank/CryptoBank.sol\":2078:2085  success */\n      dup1\n        /* \"Bloque 5 Remix/CryptoBank/CryptoBank.sol\":2070:2108  require(success, \"Could not withdraw\") */\n      tag_46\n      jumpi\n      mload(0x40)\n      0x08c379a000000000000000000000000000000000000000000000000000000000\n      dup2\n      mstore\n      0x04\n      add\n      tag_47\n      swap1\n      tag_48\n      jump\t// in\n    tag_47:\n      mload(0x40)\n      dup1\n      swap2\n      sub\n      swap1\n      revert\n    tag_46:\n        /* \"Bloque 5 Remix/CryptoBank/CryptoBank.sol\":2126:2161  etherWithdrawn(msg.sender, amount_) */\n      0xfba1a14355f33124cb609811a7c716125808676a622db67e888ac6dff68dbfea\n        /* \"Bloque 5 Remix/CryptoBank/CryptoBank.sol\":2141:2151  msg.sender */\n      caller\n        /* \"Bloque 5 Remix/CryptoBank/CryptoBank.sol\":2153:2160  amount_ */\n      dup4\n        /* \"Bloque 5 Remix/CryptoBank/CryptoBank.sol\":2126:2161  etherWithdrawn(msg.sender, amount_) */\n      mload(0x40)\n      tag_49\n      swap3\n      swap2\n      swap1\n      tag_50\n      jump\t// in\n    tag_49:\n      mload(0x40)\n      dup1\n      swap2\n      sub\n      swap1\n      log1\n        /* \"Bloque 5 Remix/CryptoBank/CryptoBank.sol\":1678:2169  {      //CEI pattern : 1. Checks 2. Update State 3. Interactions... */\n      pop\n        /* \"Bloque 5 Remix/CryptoBank/CryptoBank.sol\":1629:2169  function withdrawEther(uint256 amount_) external {      //CEI pattern : 1. Checks 2. Update State 3. Interactions... */\n      pop\n      jump\t// out\n        /* \"Bloque 5 Remix/CryptoBank/CryptoBank.sol\":725:750  uint256 public maxBalance */\n    tag_22:\n      sload(0x00)\n      dup2\n      jump\t// out\n        /* \"Bloque 5 Remix/CryptoBank/CryptoBank.sol\":1263:1603  function depositEther() external payable{   //poner function depositEther(uint256 amount_) supondría una vulnerabilidad crítica... */\n    tag_25:\n        /* \"Bloque 5 Remix/CryptoBank/CryptoBank.sol\":1449:1459  maxBalance */\n      sload(0x00)\n        /* \"Bloque 5 Remix/CryptoBank/CryptoBank.sol\":1436:1445  msg.value */\n      callvalue\n        /* \"Bloque 5 Remix/CryptoBank/CryptoBank.sol\":1410:1421  userBalance */\n      0x02\n        /* \"Bloque 5 Remix/CryptoBank/CryptoBank.sol\":1410:1433  userBalance[msg.sender] */\n      0x00\n        /* \"Bloque 5 Remix/CryptoBank/CryptoBank.sol\":1422:1432  msg.sender */\n      caller\n        /* \"Bloque 5 Remix/CryptoBank/CryptoBank.sol\":1410:1433  userBalance[msg.sender] */\n      0xffffffffffffffffffffffffffffffffffffffff\n      and\n      0xffffffffffffffffffffffffffffffffffffffff\n      and\n      dup2\n      mstore\n      0x20\n      add\n      swap1\n      dup2\n      mstore\n      0x20\n      add\n      0x00\n      keccak256\n      sload\n        /* \"Bloque 5 Remix/CryptoBank/CryptoBank.sol\":1410:1445  userBalance[msg.sender] + msg.value */\n      tag_52\n      swap2\n      swap1\n      tag_53\n      jump\t// in\n    tag_52:\n        /* \"Bloque 5 Remix/CryptoBank/CryptoBank.sol\":1410:1459  userBalance[msg.sender] + msg.value <= maxBalance */\n      gt\n      iszero\n        /* \"Bloque 5 Remix/CryptoBank/CryptoBank.sol\":1402:1495  require(userBalance[msg.sender] + msg.value <= maxBalance, \"Maximun Balance accepted: 5 eth\") */\n      tag_54\n      jumpi\n      mload(0x40)\n      0x08c379a000000000000000000000000000000000000000000000000000000000\n      dup2\n      mstore\n      0x04\n      add\n      tag_55\n      swap1\n      tag_56\n      jump\t// in\n    tag_55:\n      mload(0x40)\n      dup1\n      swap2\n      sub\n      swap1\n      revert\n    tag_54:\n        /* \"Bloque 5 Remix/CryptoBank/CryptoBank.sol\":1533:1542  msg.value */\n      callvalue\n        /* \"Bloque 5 Remix/CryptoBank/CryptoBank.sol\":1506:1517  userBalance */\n      0x02\n        /* \"Bloque 5 Remix/CryptoBank/CryptoBank.sol\":1506:1529  userBalance[msg.sender] */\n      0x00\n        /* \"Bloque 5 Remix/CryptoBank/CryptoBank.sol\":1518:1528  msg.sender */\n      caller\n        /* \"Bloque 5 Remix/CryptoBank/CryptoBank.sol\":1506:1529  userBalance[msg.sender] */\n      0xffffffffffffffffffffffffffffffffffffffff\n      and\n      0xffffffffffffffffffffffffffffffffffffffff\n      and\n      dup2\n      mstore\n      0x20\n      add\n      swap1\n      dup2\n      mstore\n      0x20\n      add\n      0x00\n      keccak256\n      0x00\n        /* \"Bloque 5 Remix/CryptoBank/CryptoBank.sol\":1506:1542  userBalance[msg.sender] += msg.value */\n      dup3\n      dup3\n      sload\n      tag_57\n      swap2\n      swap1\n      tag_53\n      jump\t// in\n    tag_57:\n      swap3\n      pop\n      pop\n      dup2\n      swap1\n      sstore\n      pop\n        /* \"Bloque 5 Remix/CryptoBank/CryptoBank.sol\":1558:1595  etherDeposited(msg.sender, msg.value) */\n      0x4de483450f36dd8489373cf9166b2260f09ae72422d836e12fd9565cec1cb91e\n        /* \"Bloque 5 Remix/CryptoBank/CryptoBank.sol\":1573:1583  msg.sender */\n      caller\n        /* \"Bloque 5 Remix/CryptoBank/CryptoBank.sol\":1585:1594  msg.value */\n      callvalue\n        /* \"Bloque 5 Remix/CryptoBank/CryptoBank.sol\":1558:1595  etherDeposited(msg.sender, msg.value) */\n      mload(0x40)\n      tag_58\n      swap3\n      swap2\n      swap1\n      tag_50\n      jump\t// in\n    tag_58:\n      mload(0x40)\n      dup1\n      swap2\n      sub\n      swap1\n      log1\n        /* \"Bloque 5 Remix/CryptoBank/CryptoBank.sol\":1263:1603  function depositEther() external payable{   //poner function depositEther(uint256 amount_) supondría una vulnerabilidad crítica... */\n      jump\t// out\n        /* \"Bloque 5 Remix/CryptoBank/CryptoBank.sol\":2201:2315  function modifyMaxBalance(uint256 newMaxBalance_) external onlyAdmin{... */\n    tag_29:\n        /* \"Bloque 5 Remix/CryptoBank/CryptoBank.sol\":1046:1051  admin */\n      0x01\n      0x00\n      swap1\n      sload\n      swap1\n      0x0100\n      exp\n      swap1\n      div\n      0xffffffffffffffffffffffffffffffffffffffff\n      and\n        /* \"Bloque 5 Remix/CryptoBank/CryptoBank.sol\":1032:1051  msg.sender == admin */\n      0xffffffffffffffffffffffffffffffffffffffff\n      and\n        /* \"Bloque 5 Remix/CryptoBank/CryptoBank.sol\":1032:1042  msg.sender */\n      caller\n        /* \"Bloque 5 Remix/CryptoBank/CryptoBank.sol\":1032:1051  msg.sender == admin */\n      0xffffffffffffffffffffffffffffffffffffffff\n      and\n      eq\n        /* \"Bloque 5 Remix/CryptoBank/CryptoBank.sol\":1024:1075  require(msg.sender == admin, \"You are not allowed\") */\n      tag_60\n      jumpi\n      mload(0x40)\n      0x08c379a000000000000000000000000000000000000000000000000000000000\n      dup2\n      mstore\n      0x04\n      add\n      tag_61\n      swap1\n      tag_62\n      jump\t// in\n    tag_61:\n      mload(0x40)\n      dup1\n      swap2\n      sub\n      swap1\n      revert\n    tag_60:\n        /* \"Bloque 5 Remix/CryptoBank/CryptoBank.sol\":2293:2307  newMaxBalance_ */\n      dup1\n        /* \"Bloque 5 Remix/CryptoBank/CryptoBank.sol\":2280:2290  maxBalance */\n      0x00\n        /* \"Bloque 5 Remix/CryptoBank/CryptoBank.sol\":2280:2307  maxBalance = newMaxBalance_ */\n      dup2\n      swap1\n      sstore\n      pop\n        /* \"Bloque 5 Remix/CryptoBank/CryptoBank.sol\":2201:2315  function modifyMaxBalance(uint256 newMaxBalance_) external onlyAdmin{... */\n      pop\n      jump\t// out\n        /* \"Bloque 5 Remix/CryptoBank/CryptoBank.sol\":757:777  address public admin */\n    tag_32:\n      0x01\n      0x00\n      swap1\n      sload\n      swap1\n      0x0100\n      exp\n      swap1\n      div\n      0xffffffffffffffffffffffffffffffffffffffff\n      and\n      dup2\n      jump\t// out\n        /* \"#utility.yul\":88:205   */\n    tag_65:\n        /* \"#utility.yul\":197:198   */\n      0x00\n        /* \"#utility.yul\":194:195   */\n      0x00\n        /* \"#utility.yul\":187:199   */\n      revert\n        /* \"#utility.yul\":334:460   */\n    tag_67:\n        /* \"#utility.yul\":371:378   */\n      0x00\n        /* \"#utility.yul\":411:453   */\n      0xffffffffffffffffffffffffffffffffffffffff\n        /* \"#utility.yul\":404:409   */\n      dup3\n        /* \"#utility.yul\":400:454   */\n      and\n        /* \"#utility.yul\":389:454   */\n      swap1\n      pop\n        /* \"#utility.yul\":334:460   */\n      swap2\n      swap1\n      pop\n      jump\t// out\n        /* \"#utility.yul\":466:562   */\n    tag_68:\n        /* \"#utility.yul\":503:510   */\n      0x00\n        /* \"#utility.yul\":532:556   */\n      tag_95\n        /* \"#utility.yul\":550:555   */\n      dup3\n        /* \"#utility.yul\":532:556   */\n      tag_67\n      jump\t// in\n    tag_95:\n        /* \"#utility.yul\":521:556   */\n      swap1\n      pop\n        /* \"#utility.yul\":466:562   */\n      swap2\n      swap1\n      pop\n      jump\t// out\n        /* \"#utility.yul\":568:690   */\n    tag_69:\n        /* \"#utility.yul\":641:665   */\n      tag_97\n        /* \"#utility.yul\":659:664   */\n      dup2\n        /* \"#utility.yul\":641:665   */\n      tag_68\n      jump\t// in\n    tag_97:\n        /* \"#utility.yul\":634:639   */\n      dup2\n        /* \"#utility.yul\":631:666   */\n      eq\n        /* \"#utility.yul\":621:684   */\n      tag_98\n      jumpi\n        /* \"#utility.yul\":680:681   */\n      0x00\n        /* \"#utility.yul\":677:678   */\n      0x00\n        /* \"#utility.yul\":670:682   */\n      revert\n        /* \"#utility.yul\":621:684   */\n    tag_98:\n        /* \"#utility.yul\":568:690   */\n      pop\n      jump\t// out\n        /* \"#utility.yul\":696:835   */\n    tag_70:\n        /* \"#utility.yul\":742:747   */\n      0x00\n        /* \"#utility.yul\":780:786   */\n      dup2\n        /* \"#utility.yul\":767:787   */\n      calldataload\n        /* \"#utility.yul\":758:787   */\n      swap1\n      pop\n        /* \"#utility.yul\":796:829   */\n      tag_100\n        /* \"#utility.yul\":823:828   */\n      dup2\n        /* \"#utility.yul\":796:829   */\n      tag_69\n      jump\t// in\n    tag_100:\n        /* \"#utility.yul\":696:835   */\n      swap3\n      swap2\n      pop\n      pop\n      jump\t// out\n        /* \"#utility.yul\":841:1170   */\n    tag_11:\n        /* \"#utility.yul\":900:906   */\n      0x00\n        /* \"#utility.yul\":949:951   */\n      0x20\n        /* \"#utility.yul\":937:946   */\n      dup3\n        /* \"#utility.yul\":928:935   */\n      dup5\n        /* \"#utility.yul\":924:947   */\n      sub\n        /* \"#utility.yul\":920:952   */\n      slt\n        /* \"#utility.yul\":917:1036   */\n      iszero\n      tag_102\n      jumpi\n        /* \"#utility.yul\":955:1034   */\n      tag_103\n      tag_65\n      jump\t// in\n    tag_103:\n        /* \"#utility.yul\":917:1036   */\n    tag_102:\n        /* \"#utility.yul\":1075:1076   */\n      0x00\n        /* \"#utility.yul\":1100:1153   */\n      tag_104\n        /* \"#utility.yul\":1145:1152   */\n      dup5\n        /* \"#utility.yul\":1136:1142   */\n      dup3\n        /* \"#utility.yul\":1125:1134   */\n      dup6\n        /* \"#utility.yul\":1121:1143   */\n      add\n        /* \"#utility.yul\":1100:1153   */\n      tag_70\n      jump\t// in\n    tag_104:\n        /* \"#utility.yul\":1090:1153   */\n      swap2\n      pop\n        /* \"#utility.yul\":1046:1163   */\n      pop\n        /* \"#utility.yul\":841:1170   */\n      swap3\n      swap2\n      pop\n      pop\n      jump\t// out\n        /* \"#utility.yul\":1176:1253   */\n    tag_71:\n        /* \"#utility.yul\":1213:1220   */\n      0x00\n        /* \"#utility.yul\":1242:1247   */\n      dup2\n        /* \"#utility.yul\":1231:1247   */\n      swap1\n      pop\n        /* \"#utility.yul\":1176:1253   */\n      swap2\n      swap1\n      pop\n      jump\t// out\n        /* \"#utility.yul\":1259:1377   */\n    tag_72:\n        /* \"#utility.yul\":1346:1370   */\n      tag_107\n        /* \"#utility.yul\":1364:1369   */\n      dup2\n        /* \"#utility.yul\":1346:1370   */\n      tag_71\n      jump\t// in\n    tag_107:\n        /* \"#utility.yul\":1341:1344   */\n      dup3\n        /* \"#utility.yul\":1334:1371   */\n      mstore\n        /* \"#utility.yul\":1259:1377   */\n      pop\n      pop\n      jump\t// out\n        /* \"#utility.yul\":1383:1605   */\n    tag_14:\n        /* \"#utility.yul\":1476:1480   */\n      0x00\n        /* \"#utility.yul\":1514:1516   */\n      0x20\n        /* \"#utility.yul\":1503:1512   */\n      dup3\n        /* \"#utility.yul\":1499:1517   */\n      add\n        /* \"#utility.yul\":1491:1517   */\n      swap1\n      pop\n        /* \"#utility.yul\":1527:1598   */\n      tag_109\n        /* \"#utility.yul\":1595:1596   */\n      0x00\n        /* \"#utility.yul\":1584:1593   */\n      dup4\n        /* \"#utility.yul\":1580:1597   */\n      add\n        /* \"#utility.yul\":1571:1577   */\n      dup5\n        /* \"#utility.yul\":1527:1598   */\n      tag_72\n      jump\t// in\n    tag_109:\n        /* \"#utility.yul\":1383:1605   */\n      swap3\n      swap2\n      pop\n      pop\n      jump\t// out\n        /* \"#utility.yul\":1611:1733   */\n    tag_73:\n        /* \"#utility.yul\":1684:1708   */\n      tag_111\n        /* \"#utility.yul\":1702:1707   */\n      dup2\n        /* \"#utility.yul\":1684:1708   */\n      tag_71\n      jump\t// in\n    tag_111:\n        /* \"#utility.yul\":1677:1682   */\n      dup2\n        /* \"#utility.yul\":1674:1709   */\n      eq\n        /* \"#utility.yul\":1664:1727   */\n      tag_112\n      jumpi\n        /* \"#utility.yul\":1723:1724   */\n      0x00\n        /* \"#utility.yul\":1720:1721   */\n      0x00\n        /* \"#utility.yul\":1713:1725   */\n      revert\n        /* \"#utility.yul\":1664:1727   */\n    tag_112:\n        /* \"#utility.yul\":1611:1733   */\n      pop\n      jump\t// out\n        /* \"#utility.yul\":1739:1878   */\n    tag_74:\n        /* \"#utility.yul\":1785:1790   */\n      0x00\n        /* \"#utility.yul\":1823:1829   */\n      dup2\n        /* \"#utility.yul\":1810:1830   */\n      calldataload\n        /* \"#utility.yul\":1801:1830   */\n      swap1\n      pop\n        /* \"#utility.yul\":1839:1872   */\n      tag_114\n        /* \"#utility.yul\":1866:1871   */\n      dup2\n        /* \"#utility.yul\":1839:1872   */\n      tag_73\n      jump\t// in\n    tag_114:\n        /* \"#utility.yul\":1739:1878   */\n      swap3\n      swap2\n      pop\n      pop\n      jump\t// out\n        /* \"#utility.yul\":1884:2213   */\n    tag_18:\n        /* \"#utility.yul\":1943:1949   */\n      0x00\n        /* \"#utility.yul\":1992:1994   */\n      0x20\n        /* \"#utility.yul\":1980:1989   */\n      dup3\n        /* \"#utility.yul\":1971:1978   */\n      dup5\n        /* \"#utility.yul\":1967:1990   */\n      sub\n        /* \"#utility.yul\":1963:1995   */\n      slt\n        /* \"#utility.yul\":1960:2079   */\n      iszero\n      tag_116\n      jumpi\n        /* \"#utility.yul\":1998:2077   */\n      tag_117\n      tag_65\n      jump\t// in\n    tag_117:\n        /* \"#utility.yul\":1960:2079   */\n    tag_116:\n        /* \"#utility.yul\":2118:2119   */\n      0x00\n        /* \"#utility.yul\":2143:2196   */\n      tag_118\n        /* \"#utility.yul\":2188:2195   */\n      dup5\n        /* \"#utility.yul\":2179:2185   */\n      dup3\n        /* \"#utility.yul\":2168:2177   */\n      dup6\n        /* \"#utility.yul\":2164:2186   */\n      add\n        /* \"#utility.yul\":2143:2196   */\n      tag_74\n      jump\t// in\n    tag_118:\n        /* \"#utility.yul\":2133:2196   */\n      swap2\n      pop\n        /* \"#utility.yul\":2089:2206   */\n      pop\n        /* \"#utility.yul\":1884:2213   */\n      swap3\n      swap2\n      pop\n      pop\n      jump\t// out\n        /* \"#utility.yul\":2219:2337   */\n    tag_75:\n        /* \"#utility.yul\":2306:2330   */\n      tag_120\n        /* \"#utility.yul\":2324:2329   */\n      dup2\n        /* \"#utility.yul\":2306:2330   */\n      tag_68\n      jump\t// in\n    tag_120:\n        /* \"#utility.yul\":2301:2304   */\n      dup3\n        /* \"#utility.yul\":2294:2331   */\n      mstore\n        /* \"#utility.yul\":2219:2337   */\n      pop\n      pop\n      jump\t// out\n        /* \"#utility.yul\":2343:2565   */\n    tag_34:\n        /* \"#utility.yul\":2436:2440   */\n      0x00\n        /* \"#utility.yul\":2474:2476   */\n      0x20\n        /* \"#utility.yul\":2463:2472   */\n      dup3\n        /* \"#utility.yul\":2459:2477   */\n      add\n        /* \"#utility.yul\":2451:2477   */\n      swap1\n      pop\n        /* \"#utility.yul\":2487:2558   */\n      tag_122\n        /* \"#utility.yul\":2555:2556   */\n      0x00\n        /* \"#utility.yul\":2544:2553   */\n      dup4\n        /* \"#utility.yul\":2540:2557   */\n      add\n        /* \"#utility.yul\":2531:2537   */\n      dup5\n        /* \"#utility.yul\":2487:2558   */\n      tag_75\n      jump\t// in\n    tag_122:\n        /* \"#utility.yul\":2343:2565   */\n      swap3\n      swap2\n      pop\n      pop\n      jump\t// out\n        /* \"#utility.yul\":2571:2740   */\n    tag_76:\n        /* \"#utility.yul\":2655:2666   */\n      0x00\n        /* \"#utility.yul\":2689:2695   */\n      dup3\n        /* \"#utility.yul\":2684:2687   */\n      dup3\n        /* \"#utility.yul\":2677:2696   */\n      mstore\n        /* \"#utility.yul\":2729:2733   */\n      0x20\n        /* \"#utility.yul\":2724:2727   */\n      dup3\n        /* \"#utility.yul\":2720:2734   */\n      add\n        /* \"#utility.yul\":2705:2734   */\n      swap1\n      pop\n        /* \"#utility.yul\":2571:2740   */\n      swap3\n      swap2\n      pop\n      pop\n      jump\t// out\n        /* \"#utility.yul\":2746:2916   */\n    tag_77:\n        /* \"#utility.yul\":2886:2908   */\n      0x496e73756666696369656e742062616c616e6365000000000000000000000000\n        /* \"#utility.yul\":2882:2883   */\n      0x00\n        /* \"#utility.yul\":2874:2880   */\n      dup3\n        /* \"#utility.yul\":2870:2884   */\n      add\n        /* \"#utility.yul\":2863:2909   */\n      mstore\n        /* \"#utility.yul\":2746:2916   */\n      pop\n      jump\t// out\n        /* \"#utility.yul\":2922:3288   */\n    tag_78:\n        /* \"#utility.yul\":3064:3067   */\n      0x00\n        /* \"#utility.yul\":3085:3152   */\n      tag_126\n        /* \"#utility.yul\":3149:3151   */\n      0x14\n        /* \"#utility.yul\":3144:3147   */\n      dup4\n        /* \"#utility.yul\":3085:3152   */\n      tag_76\n      jump\t// in\n    tag_126:\n        /* \"#utility.yul\":3078:3152   */\n      swap2\n      pop\n        /* \"#utility.yul\":3161:3254   */\n      tag_127\n        /* \"#utility.yul\":3250:3253   */\n      dup3\n        /* \"#utility.yul\":3161:3254   */\n      tag_77\n      jump\t// in\n    tag_127:\n        /* \"#utility.yul\":3279:3281   */\n      0x20\n        /* \"#utility.yul\":3274:3277   */\n      dup3\n        /* \"#utility.yul\":3270:3282   */\n      add\n        /* \"#utility.yul\":3263:3282   */\n      swap1\n      pop\n        /* \"#utility.yul\":2922:3288   */\n      swap2\n      swap1\n      pop\n      jump\t// out\n        /* \"#utility.yul\":3294:3713   */\n    tag_38:\n        /* \"#utility.yul\":3460:3464   */\n      0x00\n        /* \"#utility.yul\":3498:3500   */\n      0x20\n        /* \"#utility.yul\":3487:3496   */\n      dup3\n        /* \"#utility.yul\":3483:3501   */\n      add\n        /* \"#utility.yul\":3475:3501   */\n      swap1\n      pop\n        /* \"#utility.yul\":3547:3556   */\n      dup2\n        /* \"#utility.yul\":3541:3545   */\n      dup2\n        /* \"#utility.yul\":3537:3557   */\n      sub\n        /* \"#utility.yul\":3533:3534   */\n      0x00\n        /* \"#utility.yul\":3522:3531   */\n      dup4\n        /* \"#utility.yul\":3518:3535   */\n      add\n        /* \"#utility.yul\":3511:3558   */\n      mstore\n        /* \"#utility.yul\":3575:3706   */\n      tag_129\n        /* \"#utility.yul\":3701:3705   */\n      dup2\n        /* \"#utility.yul\":3575:3706   */\n      tag_78\n      jump\t// in\n    tag_129:\n        /* \"#utility.yul\":3567:3706   */\n      swap1\n      pop\n        /* \"#utility.yul\":3294:3713   */\n      swap2\n      swap1\n      pop\n      jump\t// out\n        /* \"#utility.yul\":3719:3899   */\n    tag_79:\n        /* \"#utility.yul\":3767:3844   */\n      0x4e487b7100000000000000000000000000000000000000000000000000000000\n        /* \"#utility.yul\":3764:3765   */\n      0x00\n        /* \"#utility.yul\":3757:3845   */\n      mstore\n        /* \"#utility.yul\":3864:3868   */\n      0x11\n        /* \"#utility.yul\":3861:3862   */\n      0x04\n        /* \"#utility.yul\":3854:3869   */\n      mstore\n        /* \"#utility.yul\":3888:3892   */\n      0x24\n        /* \"#utility.yul\":3885:3886   */\n      0x00\n        /* \"#utility.yul\":3878:3893   */\n      revert\n        /* \"#utility.yul\":3905:4099   */\n    tag_40:\n        /* \"#utility.yul\":3945:3949   */\n      0x00\n        /* \"#utility.yul\":3965:3985   */\n      tag_132\n        /* \"#utility.yul\":3983:3984   */\n      dup3\n        /* \"#utility.yul\":3965:3985   */\n      tag_71\n      jump\t// in\n    tag_132:\n        /* \"#utility.yul\":3960:3985   */\n      swap2\n      pop\n        /* \"#utility.yul\":3999:4019   */\n      tag_133\n        /* \"#utility.yul\":4017:4018   */\n      dup4\n        /* \"#utility.yul\":3999:4019   */\n      tag_71\n      jump\t// in\n    tag_133:\n        /* \"#utility.yul\":3994:4019   */\n      swap3\n      pop\n        /* \"#utility.yul\":4043:4044   */\n      dup3\n        /* \"#utility.yul\":4040:4041   */\n      dup3\n        /* \"#utility.yul\":4036:4045   */\n      sub\n        /* \"#utility.yul\":4028:4045   */\n      swap1\n      pop\n        /* \"#utility.yul\":4067:4068   */\n      dup2\n        /* \"#utility.yul\":4061:4065   */\n      dup2\n        /* \"#utility.yul\":4058:4069   */\n      gt\n        /* \"#utility.yul\":4055:4092   */\n      iszero\n      tag_134\n      jumpi\n        /* \"#utility.yul\":4072:4090   */\n      tag_135\n      tag_79\n      jump\t// in\n    tag_135:\n        /* \"#utility.yul\":4055:4092   */\n    tag_134:\n        /* \"#utility.yul\":3905:4099   */\n      swap3\n      swap2\n      pop\n      pop\n      jump\t// out\n        /* \"#utility.yul\":4105:4252   */\n    tag_80:\n        /* \"#utility.yul\":4206:4217   */\n      0x00\n        /* \"#utility.yul\":4243:4246   */\n      dup2\n        /* \"#utility.yul\":4228:4246   */\n      swap1\n      pop\n        /* \"#utility.yul\":4105:4252   */\n      swap3\n      swap2\n      pop\n      pop\n      jump\t// out\n        /* \"#utility.yul\":4258:4372   */\n    tag_81:\n      pop\n      jump\t// out\n        /* \"#utility.yul\":4378:4776   */\n    tag_82:\n        /* \"#utility.yul\":4537:4540   */\n      0x00\n        /* \"#utility.yul\":4558:4641   */\n      tag_139\n        /* \"#utility.yul\":4639:4640   */\n      0x00\n        /* \"#utility.yul\":4634:4637   */\n      dup4\n        /* \"#utility.yul\":4558:4641   */\n      tag_80\n      jump\t// in\n    tag_139:\n        /* \"#utility.yul\":4551:4641   */\n      swap2\n      pop\n        /* \"#utility.yul\":4650:4743   */\n      tag_140\n        /* \"#utility.yul\":4739:4742   */\n      dup3\n        /* \"#utility.yul\":4650:4743   */\n      tag_81\n      jump\t// in\n    tag_140:\n        /* \"#utility.yul\":4768:4769   */\n      0x00\n        /* \"#utility.yul\":4763:4766   */\n      dup3\n        /* \"#utility.yul\":4759:4770   */\n      add\n        /* \"#utility.yul\":4752:4770   */\n      swap1\n      pop\n        /* \"#utility.yul\":4378:4776   */\n      swap2\n      swap1\n      pop\n      jump\t// out\n        /* \"#utility.yul\":4782:5161   */\n    tag_42:\n        /* \"#utility.yul\":4966:4969   */\n      0x00\n        /* \"#utility.yul\":4988:5135   */\n      tag_142\n        /* \"#utility.yul\":5131:5134   */\n      dup3\n        /* \"#utility.yul\":4988:5135   */\n      tag_82\n      jump\t// in\n    tag_142:\n        /* \"#utility.yul\":4981:5135   */\n      swap2\n      pop\n        /* \"#utility.yul\":5152:5155   */\n      dup2\n        /* \"#utility.yul\":5145:5155   */\n      swap1\n      pop\n        /* \"#utility.yul\":4782:5161   */\n      swap2\n      swap1\n      pop\n      jump\t// out\n        /* \"#utility.yul\":5167:5335   */\n    tag_83:\n        /* \"#utility.yul\":5307:5327   */\n      0x436f756c64206e6f742077697468647261770000000000000000000000000000\n        /* \"#utility.yul\":5303:5304   */\n      0x00\n        /* \"#utility.yul\":5295:5301   */\n      dup3\n        /* \"#utility.yul\":5291:5305   */\n      add\n        /* \"#utility.yul\":5284:5328   */\n      mstore\n        /* \"#utility.yul\":5167:5335   */\n      pop\n      jump\t// out\n        /* \"#utility.yul\":5341:5707   */\n    tag_84:\n        /* \"#utility.yul\":5483:5486   */\n      0x00\n        /* \"#utility.yul\":5504:5571   */\n      tag_145\n        /* \"#utility.yul\":5568:5570   */\n      0x12\n        /* \"#utility.yul\":5563:5566   */\n      dup4\n        /* \"#utility.yul\":5504:5571   */\n      tag_76\n      jump\t// in\n    tag_145:\n        /* \"#utility.yul\":5497:5571   */\n      swap2\n      pop\n        /* \"#utility.yul\":5580:5673   */\n      tag_146\n        /* \"#utility.yul\":5669:5672   */\n      dup3\n        /* \"#utility.yul\":5580:5673   */\n      tag_83\n      jump\t// in\n    tag_146:\n        /* \"#utility.yul\":5698:5700   */\n      0x20\n        /* \"#utility.yul\":5693:5696   */\n      dup3\n        /* \"#utility.yul\":5689:5701   */\n      add\n        /* \"#utility.yul\":5682:5701   */\n      swap1\n      pop\n        /* \"#utility.yul\":5341:5707   */\n      swap2\n      swap1\n      pop\n      jump\t// out\n        /* \"#utility.yul\":5713:6132   */\n    tag_48:\n        /* \"#utility.yul\":5879:5883   */\n      0x00\n        /* \"#utility.yul\":5917:5919   */\n      0x20\n        /* \"#utility.yul\":5906:5915   */\n      dup3\n        /* \"#utility.yul\":5902:5920   */\n      add\n        /* \"#utility.yul\":5894:5920   */\n      swap1\n      pop\n        /* \"#utility.yul\":5966:5975   */\n      dup2\n        /* \"#utility.yul\":5960:5964   */\n      dup2\n        /* \"#utility.yul\":5956:5976   */\n      sub\n        /* \"#utility.yul\":5952:5953   */\n      0x00\n        /* \"#utility.yul\":5941:5950   */\n      dup4\n        /* \"#utility.yul\":5937:5954   */\n      add\n        /* \"#utility.yul\":5930:5977   */\n      mstore\n        /* \"#utility.yul\":5994:6125   */\n      tag_148\n        /* \"#utility.yul\":6120:6124   */\n      dup2\n        /* \"#utility.yul\":5994:6125   */\n      tag_84\n      jump\t// in\n    tag_148:\n        /* \"#utility.yul\":5986:6125   */\n      swap1\n      pop\n        /* \"#utility.yul\":5713:6132   */\n      swap2\n      swap1\n      pop\n      jump\t// out\n        /* \"#utility.yul\":6138:6470   */\n    tag_50:\n        /* \"#utility.yul\":6259:6263   */\n      0x00\n        /* \"#utility.yul\":6297:6299   */\n      0x40\n        /* \"#utility.yul\":6286:6295   */\n      dup3\n        /* \"#utility.yul\":6282:6300   */\n      add\n        /* \"#utility.yul\":6274:6300   */\n      swap1\n      pop\n        /* \"#utility.yul\":6310:6381   */\n      tag_150\n        /* \"#utility.yul\":6378:6379   */\n      0x00\n        /* \"#utility.yul\":6367:6376   */\n      dup4\n        /* \"#utility.yul\":6363:6380   */\n      add\n        /* \"#utility.yul\":6354:6360   */\n      dup6\n        /* \"#utility.yul\":6310:6381   */\n      tag_75\n      jump\t// in\n    tag_150:\n        /* \"#utility.yul\":6391:6463   */\n      tag_151\n        /* \"#utility.yul\":6459:6461   */\n      0x20\n        /* \"#utility.yul\":6448:6457   */\n      dup4\n        /* \"#utility.yul\":6444:6462   */\n      add\n        /* \"#utility.yul\":6435:6441   */\n      dup5\n        /* \"#utility.yul\":6391:6463   */\n      tag_72\n      jump\t// in\n    tag_151:\n        /* \"#utility.yul\":6138:6470   */\n      swap4\n      swap3\n      pop\n      pop\n      pop\n      jump\t// out\n        /* \"#utility.yul\":6476:6667   */\n    tag_53:\n        /* \"#utility.yul\":6516:6519   */\n      0x00\n        /* \"#utility.yul\":6535:6555   */\n      tag_153\n        /* \"#utility.yul\":6553:6554   */\n      dup3\n        /* \"#utility.yul\":6535:6555   */\n      tag_71\n      jump\t// in\n    tag_153:\n        /* \"#utility.yul\":6530:6555   */\n      swap2\n      pop\n        /* \"#utility.yul\":6569:6589   */\n      tag_154\n        /* \"#utility.yul\":6587:6588   */\n      dup4\n        /* \"#utility.yul\":6569:6589   */\n      tag_71\n      jump\t// in\n    tag_154:\n        /* \"#utility.yul\":6564:6589   */\n      swap3\n      pop\n        /* \"#utility.yul\":6612:6613   */\n      dup3\n        /* \"#utility.yul\":6609:6610   */\n      dup3\n        /* \"#utility.yul\":6605:6614   */\n      add\n        /* \"#utility.yul\":6598:6614   */\n      swap1\n      pop\n        /* \"#utility.yul\":6633:6636   */\n      dup1\n        /* \"#utility.yul\":6630:6631   */\n      dup3\n        /* \"#utility.yul\":6627:6637   */\n      gt\n        /* \"#utility.yul\":6624:6660   */\n      iszero\n      tag_155\n      jumpi\n        /* \"#utility.yul\":6640:6658   */\n      tag_156\n      tag_79\n      jump\t// in\n    tag_156:\n        /* \"#utility.yul\":6624:6660   */\n    tag_155:\n        /* \"#utility.yul\":6476:6667   */\n      swap3\n      swap2\n      pop\n      pop\n      jump\t// out\n        /* \"#utility.yul\":6673:6854   */\n    tag_85:\n        /* \"#utility.yul\":6813:6846   */\n      0x4d6178696d756e2042616c616e63652061636365707465643a20352065746800\n        /* \"#utility.yul\":6809:6810   */\n      0x00\n        /* \"#utility.yul\":6801:6807   */\n      dup3\n        /* \"#utility.yul\":6797:6811   */\n      add\n        /* \"#utility.yul\":6790:6847   */\n      mstore\n        /* \"#utility.yul\":6673:6854   */\n      pop\n      jump\t// out\n        /* \"#utility.yul\":6860:7226   */\n    tag_86:\n        /* \"#utility.yul\":7002:7005   */\n      0x00\n        /* \"#utility.yul\":7023:7090   */\n      tag_159\n        /* \"#utility.yul\":7087:7089   */\n      0x1f\n        /* \"#utility.yul\":7082:7085   */\n      dup4\n        /* \"#utility.yul\":7023:7090   */\n      tag_76\n      jump\t// in\n    tag_159:\n        /* \"#utility.yul\":7016:7090   */\n      swap2\n      pop\n        /* \"#utility.yul\":7099:7192   */\n      tag_160\n        /* \"#utility.yul\":7188:7191   */\n      dup3\n        /* \"#utility.yul\":7099:7192   */\n      tag_85\n      jump\t// in\n    tag_160:\n        /* \"#utility.yul\":7217:7219   */\n      0x20\n        /* \"#utility.yul\":7212:7215   */\n      dup3\n        /* \"#utility.yul\":7208:7220   */\n      add\n        /* \"#utility.yul\":7201:7220   */\n      swap1\n      pop\n        /* \"#utility.yul\":6860:7226   */\n      swap2\n      swap1\n      pop\n      jump\t// out\n        /* \"#utility.yul\":7232:7651   */\n    tag_56:\n        /* \"#utility.yul\":7398:7402   */\n      0x00\n        /* \"#utility.yul\":7436:7438   */\n      0x20\n        /* \"#utility.yul\":7425:7434   */\n      dup3\n        /* \"#utility.yul\":7421:7439   */\n      add\n        /* \"#utility.yul\":7413:7439   */\n      swap1\n      pop\n        /* \"#utility.yul\":7485:7494   */\n      dup2\n        /* \"#utility.yul\":7479:7483   */\n      dup2\n        /* \"#utility.yul\":7475:7495   */\n      sub\n        /* \"#utility.yul\":7471:7472   */\n      0x00\n        /* \"#utility.yul\":7460:7469   */\n      dup4\n        /* \"#utility.yul\":7456:7473   */\n      add\n        /* \"#utility.yul\":7449:7496   */\n      mstore\n        /* \"#utility.yul\":7513:7644   */\n      tag_162\n        /* \"#utility.yul\":7639:7643   */\n      dup2\n        /* \"#utility.yul\":7513:7644   */\n      tag_86\n      jump\t// in\n    tag_162:\n        /* \"#utility.yul\":7505:7644   */\n      swap1\n      pop\n        /* \"#utility.yul\":7232:7651   */\n      swap2\n      swap1\n      pop\n      jump\t// out\n        /* \"#utility.yul\":7657:7826   */\n    tag_87:\n        /* \"#utility.yul\":7797:7818   */\n      0x596f7520617265206e6f7420616c6c6f77656400000000000000000000000000\n        /* \"#utility.yul\":7793:7794   */\n      0x00\n        /* \"#utility.yul\":7785:7791   */\n      dup3\n        /* \"#utility.yul\":7781:7795   */\n      add\n        /* \"#utility.yul\":7774:7819   */\n      mstore\n        /* \"#utility.yul\":7657:7826   */\n      pop\n      jump\t// out\n        /* \"#utility.yul\":7832:8198   */\n    tag_88:\n        /* \"#utility.yul\":7974:7977   */\n      0x00\n        /* \"#utility.yul\":7995:8062   */\n      tag_165\n        /* \"#utility.yul\":8059:8061   */\n      0x13\n        /* \"#utility.yul\":8054:8057   */\n      dup4\n        /* \"#utility.yul\":7995:8062   */\n      tag_76\n      jump\t// in\n    tag_165:\n        /* \"#utility.yul\":7988:8062   */\n      swap2\n      pop\n        /* \"#utility.yul\":8071:8164   */\n      tag_166\n        /* \"#utility.yul\":8160:8163   */\n      dup3\n        /* \"#utility.yul\":8071:8164   */\n      tag_87\n      jump\t// in\n    tag_166:\n        /* \"#utility.yul\":8189:8191   */\n      0x20\n        /* \"#utility.yul\":8184:8187   */\n      dup3\n        /* \"#utility.yul\":8180:8192   */\n      add\n        /* \"#utility.yul\":8173:8192   */\n      swap1\n      pop\n        /* \"#utility.yul\":7832:8198   */\n      swap2\n      swap1\n      pop\n      jump\t// out\n        /* \"#utility.yul\":8204:8623   */\n    tag_62:\n        /* \"#utility.yul\":8370:8374   */\n      0x00\n        /* \"#utility.yul\":8408:8410   */\n      0x20\n        /* \"#utility.yul\":8397:8406   */\n      dup3\n        /* \"#utility.yul\":8393:8411   */\n      add\n        /* \"#utility.yul\":8385:8411   */\n      swap1\n      pop\n        /* \"#utility.yul\":8457:8466   */\n      dup2\n        /* \"#utility.yul\":8451:8455   */\n      dup2\n        /* \"#utility.yul\":8447:8467   */\n      sub\n        /* \"#utility.yul\":8443:8444   */\n      0x00\n        /* \"#utility.yul\":8432:8441   */\n      dup4\n        /* \"#utility.yul\":8428:8445   */\n      add\n        /* \"#utility.yul\":8421:8468   */\n      mstore\n        /* \"#utility.yul\":8485:8616   */\n      tag_168\n        /* \"#utility.yul\":8611:8615   */\n      dup2\n        /* \"#utility.yul\":8485:8616   */\n      tag_88\n      jump\t// in\n    tag_168:\n        /* \"#utility.yul\":8477:8616   */\n      swap1\n      pop\n        /* \"#utility.yul\":8204:8623   */\n      swap2\n      swap1\n      pop\n      jump\t// out\n\n    auxdata: 0xa2646970667358221220bb5e0be69e3f08e213e880215029248ae620d22bade588445828acdc0ee40f8764736f6c634300081c0033\n}\n",
				"bytecode": {
					"linkReferences": {},
					"object": "608060405234801561000f575f5ffd5b50604051610a5d380380610a5d8339818101604052810190610031919061010f565b815f819055508060015f6101000a81548173ffffffffffffffffffffffffffffffffffffffff021916908373ffffffffffffffffffffffffffffffffffffffff160217905550505061014d565b5f5ffd5b5f819050919050565b61009481610082565b811461009e575f5ffd5b50565b5f815190506100af8161008b565b92915050565b5f73ffffffffffffffffffffffffffffffffffffffff82169050919050565b5f6100de826100b5565b9050919050565b6100ee816100d4565b81146100f8575f5ffd5b50565b5f81519050610109816100e5565b92915050565b5f5f604083850312156101255761012461007e565b5b5f610132858286016100a1565b9250506020610143858286016100fb565b9150509250929050565b6109038061015a5f395ff3fe608060405260043610610054575f3560e01c80630103c92b146100585780633bed33ce1461009457806373ad468a146100bc57806398ea5fca146100e6578063a2ccd6ba146100f0578063f851a44014610118575b5f5ffd5b348015610063575f5ffd5b5061007e60048036038101906100799190610549565b610142565b60405161008b919061058c565b60405180910390f35b34801561009f575f5ffd5b506100ba60048036038101906100b591906105cf565b610157565b005b3480156100c7575f5ffd5b506100d061030f565b6040516100dd919061058c565b60405180910390f35b6100ee610314565b005b3480156100fb575f5ffd5b50610116600480360381019061011191906105cf565b61042e565b005b348015610123575f5ffd5b5061012c6104c6565b6040516101399190610609565b60405180910390f35b6002602052805f5260405f205f915090505481565b8060025f3373ffffffffffffffffffffffffffffffffffffffff1673ffffffffffffffffffffffffffffffffffffffff1681526020019081526020015f205410156101d7576040517f08c379a00000000000000000000000000000000000000000000000000000000081526004016101ce9061067c565b60405180910390fd5b8060025f3373ffffffffffffffffffffffffffffffffffffffff1673ffffffffffffffffffffffffffffffffffffffff1681526020019081526020015f205f82825461022391906106c7565b925050819055505f3373ffffffffffffffffffffffffffffffffffffffff168260405161024f90610727565b5f6040518083038185875af1925050503d805f8114610289576040519150601f19603f3d011682016040523d82523d5f602084013e61028e565b606091505b50509050806102d2576040517f08c379a00000000000000000000000000000000000000000000000000000000081526004016102c990610785565b60405180910390fd5b7ffba1a14355f33124cb609811a7c716125808676a622db67e888ac6dff68dbfea33836040516103039291906107a3565b60405180910390a15050565b5f5481565b5f543460025f3373ffffffffffffffffffffffffffffffffffffffff1673ffffffffffffffffffffffffffffffffffffffff1681526020019081526020015f205461035f91906107ca565b11156103a0576040517f08c379a000000000000000000000000000000000000000000000000000000000815260040161039790610847565b60405180910390fd5b3460025f3373ffffffffffffffffffffffffffffffffffffffff1673ffffffffffffffffffffffffffffffffffffffff1681526020019081526020015f205f8282546103ec91906107ca565b925050819055507f4de483450f36dd8489373cf9166b2260f09ae72422d836e12fd9565cec1cb91e33346040516104249291906107a3565b60405180910390a1565b60015f9054906101000a900473ffffffffffffffffffffffffffffffffffffffff1673ffffffffffffffffffffffffffffffffffffffff163373ffffffffffffffffffffffffffffffffffffffff16146104bd576040517f08c379a00000000000000000000000000000000000000000000000000000000081526004016104b4906108af565b60405180910390fd5b805f8190555050565b60015f9054906101000a900473ffffffffffffffffffffffffffffffffffffffff1681565b5f5ffd5b5f73ffffffffffffffffffffffffffffffffffffffff82169050919050565b5f610518826104ef565b9050919050565b6105288161050e565b8114610532575f5ffd5b50565b5f813590506105438161051f565b92915050565b5f6020828403121561055e5761055d6104eb565b5b5f61056b84828501610535565b91505092915050565b5f819050919050565b61058681610574565b82525050565b5f60208201905061059f5f83018461057d565b92915050565b6105ae81610574565b81146105b8575f5ffd5b50565b5f813590506105c9816105a5565b92915050565b5f602082840312156105e4576105e36104eb565b5b5f6105f1848285016105bb565b91505092915050565b6106038161050e565b82525050565b5f60208201905061061c5f8301846105fa565b92915050565b5f82825260208201905092915050565b7f496e73756666696369656e742062616c616e63650000000000000000000000005f82015250565b5f610666601483610622565b915061067182610632565b602082019050919050565b5f6020820190508181035f8301526106938161065a565b9050919050565b7f4e487b71000000000000000000000000000000000000000000000000000000005f52601160045260245ffd5b5f6106d182610574565b91506106dc83610574565b92508282039050818111156106f4576106f361069a565b5b92915050565b5f81905092915050565b50565b5f6107125f836106fa565b915061071d82610704565b5f82019050919050565b5f61073182610707565b9150819050919050565b7f436f756c64206e6f7420776974686472617700000000000000000000000000005f82015250565b5f61076f601283610622565b915061077a8261073b565b602082019050919050565b5f6020820190508181035f83015261079c81610763565b9050919050565b5f6040820190506107b65f8301856105fa565b6107c3602083018461057d565b9392505050565b5f6107d482610574565b91506107df83610574565b92508282019050808211156107f7576107f661069a565b5b92915050565b7f4d6178696d756e2042616c616e63652061636365707465643a203520657468005f82015250565b5f610831601f83610622565b915061083c826107fd565b602082019050919050565b5f6020820190508181035f83015261085e81610825565b9050919050565b7f596f7520617265206e6f7420616c6c6f776564000000000000000000000000005f82015250565b5f610899601383610622565b91506108a482610865565b602082019050919050565b5f6020820190508181035f8301526108c68161088d565b905091905056fea2646970667358221220bb5e0be69e3f08e213e880215029248ae620d22bade588445828acdc0ee40f8764736f6c634300081c0033",
					"opcodes": "PUSH1 0x80 PUSH1 0x40 MSTORE CALLVALUE DUP1 ISZERO PUSH2 0xF JUMPI PUSH0 PUSH0 REVERT JUMPDEST POP PUSH1 0x40 MLOAD PUSH2 0xA5D CODESIZE SUB DUP1 PUSH2 0xA5D DUP4 CODECOPY DUP2 DUP2 ADD PUSH1 0x40 MSTORE DUP2 ADD SWAP1 PUSH2 0x31 SWAP2 SWAP1 PUSH2 0x10F JUMP JUMPDEST DUP2 PUSH0 DUP2 SWAP1 SSTORE POP DUP1 PUSH1 0x1 PUSH0 PUSH2 0x100 EXP DUP2 SLOAD DUP2 PUSH20 0xFFFFFFFFFFFFFFFFFFFFFFFFFFFFFFFFFFFFFFFF MUL NOT AND SWAP1 DUP4 PUSH20 0xFFFFFFFFFFFFFFFFFFFFFFFFFFFFFFFFFFFFFFFF AND MUL OR SWAP1 SSTORE POP POP POP PUSH2 0x14D JUMP JUMPDEST PUSH0 PUSH0 REVERT JUMPDEST PUSH0 DUP2 SWAP1 POP SWAP2 SWAP1 POP JUMP JUMPDEST PUSH2 0x94 DUP2 PUSH2 0x82 JUMP JUMPDEST DUP2 EQ PUSH2 0x9E JUMPI PUSH0 PUSH0 REVERT JUMPDEST POP JUMP JUMPDEST PUSH0 DUP2 MLOAD SWAP1 POP PUSH2 0xAF DUP2 PUSH2 0x8B JUMP JUMPDEST SWAP3 SWAP2 POP POP JUMP JUMPDEST PUSH0 PUSH20 0xFFFFFFFFFFFFFFFFFFFFFFFFFFFFFFFFFFFFFFFF DUP3 AND SWAP1 POP SWAP2 SWAP1 POP JUMP JUMPDEST PUSH0 PUSH2 0xDE DUP3 PUSH2 0xB5 JUMP JUMPDEST SWAP1 POP SWAP2 SWAP1 POP JUMP JUMPDEST PUSH2 0xEE DUP2 PUSH2 0xD4 JUMP JUMPDEST DUP2 EQ PUSH2 0xF8 JUMPI PUSH0 PUSH0 REVERT JUMPDEST POP JUMP JUMPDEST PUSH0 DUP2 MLOAD SWAP1 POP PUSH2 0x109 DUP2 PUSH2 0xE5 JUMP JUMPDEST SWAP3 SWAP2 POP POP JUMP JUMPDEST PUSH0 PUSH0 PUSH1 0x40 DUP4 DUP6 SUB SLT ISZERO PUSH2 0x125 JUMPI PUSH2 0x124 PUSH2 0x7E JUMP JUMPDEST JUMPDEST PUSH0 PUSH2 0x132 DUP6 DUP3 DUP7 ADD PUSH2 0xA1 JUMP JUMPDEST SWAP3 POP POP PUSH1 0x20 PUSH2 0x143 DUP6 DUP3 DUP7 ADD PUSH2 0xFB JUMP JUMPDEST SWAP2 POP POP SWAP3 POP SWAP3 SWAP1 POP JUMP JUMPDEST PUSH2 0x903 DUP1 PUSH2 0x15A PUSH0 CODECOPY PUSH0 RETURN INVALID PUSH1 0x80 PUSH1 0x40 MSTORE PUSH1 0x4 CALLDATASIZE LT PUSH2 0x54 JUMPI PUSH0 CALLDATALOAD PUSH1 0xE0 SHR DUP1 PUSH4 0x103C92B EQ PUSH2 0x58 JUMPI DUP1 PUSH4 0x3BED33CE EQ PUSH2 0x94 JUMPI DUP1 PUSH4 0x73AD468A EQ PUSH2 0xBC JUMPI DUP1 PUSH4 0x98EA5FCA EQ PUSH2 0xE6 JUMPI DUP1 PUSH4 0xA2CCD6BA EQ PUSH2 0xF0 JUMPI DUP1 PUSH4 0xF851A440 EQ PUSH2 0x118 JUMPI JUMPDEST PUSH0 PUSH0 REVERT JUMPDEST CALLVALUE DUP1 ISZERO PUSH2 0x63 JUMPI PUSH0 PUSH0 REVERT JUMPDEST POP PUSH2 0x7E PUSH1 0x4 DUP1 CALLDATASIZE SUB DUP2 ADD SWAP1 PUSH2 0x79 SWAP2 SWAP1 PUSH2 0x549 JUMP JUMPDEST PUSH2 0x142 JUMP JUMPDEST PUSH1 0x40 MLOAD PUSH2 0x8B SWAP2 SWAP1 PUSH2 0x58C JUMP JUMPDEST PUSH1 0x40 MLOAD DUP1 SWAP2 SUB SWAP1 RETURN JUMPDEST CALLVALUE DUP1 ISZERO PUSH2 0x9F JUMPI PUSH0 PUSH0 REVERT JUMPDEST POP PUSH2 0xBA PUSH1 0x4 DUP1 CALLDATASIZE SUB DUP2 ADD SWAP1 PUSH2 0xB5 SWAP2 SWAP1 PUSH2 0x5CF JUMP JUMPDEST PUSH2 0x157 JUMP JUMPDEST STOP JUMPDEST CALLVALUE DUP1 ISZERO PUSH2 0xC7 JUMPI PUSH0 PUSH0 REVERT JUMPDEST POP PUSH2 0xD0 PUSH2 0x30F JUMP JUMPDEST PUSH1 0x40 MLOAD PUSH2 0xDD SWAP2 SWAP1 PUSH2 0x58C JUMP JUMPDEST PUSH1 0x40 MLOAD DUP1 SWAP2 SUB SWAP1 RETURN JUMPDEST PUSH2 0xEE PUSH2 0x314 JUMP JUMPDEST STOP JUMPDEST CALLVALUE DUP1 ISZERO PUSH2 0xFB JUMPI PUSH0 PUSH0 REVERT JUMPDEST POP PUSH2 0x116 PUSH1 0x4 DUP1 CALLDATASIZE SUB DUP2 ADD SWAP1 PUSH2 0x111 SWAP2 SWAP1 PUSH2 0x5CF JUMP JUMPDEST PUSH2 0x42E JUMP JUMPDEST STOP JUMPDEST CALLVALUE DUP1 ISZERO PUSH2 0x123 JUMPI PUSH0 PUSH0 REVERT JUMPDEST POP PUSH2 0x12C PUSH2 0x4C6 JUMP JUMPDEST PUSH1 0x40 MLOAD PUSH2 0x139 SWAP2 SWAP1 PUSH2 0x609 JUMP JUMPDEST PUSH1 0x40 MLOAD DUP1 SWAP2 SUB SWAP1 RETURN JUMPDEST PUSH1 0x2 PUSH1 0x20 MSTORE DUP1 PUSH0 MSTORE PUSH1 0x40 PUSH0 KECCAK256 PUSH0 SWAP2 POP SWAP1 POP SLOAD DUP2 JUMP JUMPDEST DUP1 PUSH1 0x2 PUSH0 CALLER PUSH20 0xFFFFFFFFFFFFFFFFFFFFFFFFFFFFFFFFFFFFFFFF AND PUSH20 0xFFFFFFFFFFFFFFFFFFFFFFFFFFFFFFFFFFFFFFFF AND DUP2 MSTORE PUSH1 0x20 ADD SWAP1 DUP2 MSTORE PUSH1 0x20 ADD PUSH0 KECCAK256 SLOAD LT ISZERO PUSH2 0x1D7 JUMPI PUSH1 0x40 MLOAD PUSH32 0x8C379A000000000000000000000000000000000000000000000000000000000 DUP2 MSTORE PUSH1 0x4 ADD PUSH2 0x1CE SWAP1 PUSH2 0x67C JUMP JUMPDEST PUSH1 0x40 MLOAD DUP1 SWAP2 SUB SWAP1 REVERT JUMPDEST DUP1 PUSH1 0x2 PUSH0 CALLER PUSH20 0xFFFFFFFFFFFFFFFFFFFFFFFFFFFFFFFFFFFFFFFF AND PUSH20 0xFFFFFFFFFFFFFFFFFFFFFFFFFFFFFFFFFFFFFFFF AND DUP2 MSTORE PUSH1 0x20 ADD SWAP1 DUP2 MSTORE PUSH1 0x20 ADD PUSH0 KECCAK256 PUSH0 DUP3 DUP3 SLOAD PUSH2 0x223 SWAP2 SWAP1 PUSH2 0x6C7 JUMP JUMPDEST SWAP3 POP POP DUP2 SWAP1 SSTORE POP PUSH0 CALLER PUSH20 0xFFFFFFFFFFFFFFFFFFFFFFFFFFFFFFFFFFFFFFFF AND DUP3 PUSH1 0x40 MLOAD PUSH2 0x24F SWAP1 PUSH2 0x727 JUMP JUMPDEST PUSH0 PUSH1 0x40 MLOAD DUP1 DUP4 SUB DUP2 DUP6 DUP8 GAS CALL SWAP3 POP POP POP RETURNDATASIZE DUP1 PUSH0 DUP2 EQ PUSH2 0x289 JUMPI PUSH1 0x40 MLOAD SWAP2 POP PUSH1 0x1F NOT PUSH1 0x3F RETURNDATASIZE ADD AND DUP3 ADD PUSH1 0x40 MSTORE RETURNDATASIZE DUP3 MSTORE RETURNDATASIZE PUSH0 PUSH1 0x20 DUP5 ADD RETURNDATACOPY PUSH2 0x28E JUMP JUMPDEST PUSH1 0x60 SWAP2 POP JUMPDEST POP POP SWAP1 POP DUP1 PUSH2 0x2D2 JUMPI PUSH1 0x40 MLOAD PUSH32 0x8C379A000000000000000000000000000000000000000000000000000000000 DUP2 MSTORE PUSH1 0x4 ADD PUSH2 0x2C9 SWAP1 PUSH2 0x785 JUMP JUMPDEST PUSH1 0x40 MLOAD DUP1 SWAP2 SUB SWAP1 REVERT JUMPDEST PUSH32 0xFBA1A14355F33124CB609811A7C716125808676A622DB67E888AC6DFF68DBFEA CALLER DUP4 PUSH1 0x40 MLOAD PUSH2 0x303 SWAP3 SWAP2 SWAP1 PUSH2 0x7A3 JUMP JUMPDEST PUSH1 0x40 MLOAD DUP1 SWAP2 SUB SWAP1 LOG1 POP POP JUMP JUMPDEST PUSH0 SLOAD DUP2 JUMP JUMPDEST PUSH0 SLOAD CALLVALUE PUSH1 0x2 PUSH0 CALLER PUSH20 0xFFFFFFFFFFFFFFFFFFFFFFFFFFFFFFFFFFFFFFFF AND PUSH20 0xFFFFFFFFFFFFFFFFFFFFFFFFFFFFFFFFFFFFFFFF AND DUP2 MSTORE PUSH1 0x20 ADD SWAP1 DUP2 MSTORE PUSH1 0x20 ADD PUSH0 KECCAK256 SLOAD PUSH2 0x35F SWAP2 SWAP1 PUSH2 0x7CA JUMP JUMPDEST GT ISZERO PUSH2 0x3A0 JUMPI PUSH1 0x40 MLOAD PUSH32 0x8C379A000000000000000000000000000000000000000000000000000000000 DUP2 MSTORE PUSH1 0x4 ADD PUSH2 0x397 SWAP1 PUSH2 0x847 JUMP JUMPDEST PUSH1 0x40 MLOAD DUP1 SWAP2 SUB SWAP1 REVERT JUMPDEST CALLVALUE PUSH1 0x2 PUSH0 CALLER PUSH20 0xFFFFFFFFFFFFFFFFFFFFFFFFFFFFFFFFFFFFFFFF AND PUSH20 0xFFFFFFFFFFFFFFFFFFFFFFFFFFFFFFFFFFFFFFFF AND DUP2 MSTORE PUSH1 0x20 ADD SWAP1 DUP2 MSTORE PUSH1 0x20 ADD PUSH0 KECCAK256 PUSH0 DUP3 DUP3 SLOAD PUSH2 0x3EC SWAP2 SWAP1 PUSH2 0x7CA JUMP JUMPDEST SWAP3 POP POP DUP2 SWAP1 SSTORE POP PUSH32 0x4DE483450F36DD8489373CF9166B2260F09AE72422D836E12FD9565CEC1CB91E CALLER CALLVALUE PUSH1 0x40 MLOAD PUSH2 0x424 SWAP3 SWAP2 SWAP1 PUSH2 0x7A3 JUMP JUMPDEST PUSH1 0x40 MLOAD DUP1 SWAP2 SUB SWAP1 LOG1 JUMP JUMPDEST PUSH1 0x1 PUSH0 SWAP1 SLOAD SWAP1 PUSH2 0x100 EXP SWAP1 DIV PUSH20 0xFFFFFFFFFFFFFFFFFFFFFFFFFFFFFFFFFFFFFFFF AND PUSH20 0xFFFFFFFFFFFFFFFFFFFFFFFFFFFFFFFFFFFFFFFF AND CALLER PUSH20 0xFFFFFFFFFFFFFFFFFFFFFFFFFFFFFFFFFFFFFFFF AND EQ PUSH2 0x4BD JUMPI PUSH1 0x40 MLOAD PUSH32 0x8C379A000000000000000000000000000000000000000000000000000000000 DUP2 MSTORE PUSH1 0x4 ADD PUSH2 0x4B4 SWAP1 PUSH2 0x8AF JUMP JUMPDEST PUSH1 0x40 MLOAD DUP1 SWAP2 SUB SWAP1 REVERT JUMPDEST DUP1 PUSH0 DUP2 SWAP1 SSTORE POP POP JUMP JUMPDEST PUSH1 0x1 PUSH0 SWAP1 SLOAD SWAP1 PUSH2 0x100 EXP SWAP1 DIV PUSH20 0xFFFFFFFFFFFFFFFFFFFFFFFFFFFFFFFFFFFFFFFF AND DUP2 JUMP JUMPDEST PUSH0 PUSH0 REVERT JUMPDEST PUSH0 PUSH20 0xFFFFFFFFFFFFFFFFFFFFFFFFFFFFFFFFFFFFFFFF DUP3 AND SWAP1 POP SWAP2 SWAP1 POP JUMP JUMPDEST PUSH0 PUSH2 0x518 DUP3 PUSH2 0x4EF JUMP JUMPDEST SWAP1 POP SWAP2 SWAP1 POP JUMP JUMPDEST PUSH2 0x528 DUP2 PUSH2 0x50E JUMP JUMPDEST DUP2 EQ PUSH2 0x532 JUMPI PUSH0 PUSH0 REVERT JUMPDEST POP JUMP JUMPDEST PUSH0 DUP2 CALLDATALOAD SWAP1 POP PUSH2 0x543 DUP2 PUSH2 0x51F JUMP JUMPDEST SWAP3 SWAP2 POP POP JUMP JUMPDEST PUSH0 PUSH1 0x20 DUP3 DUP5 SUB SLT ISZERO PUSH2 0x55E JUMPI PUSH2 0x55D PUSH2 0x4EB JUMP JUMPDEST JUMPDEST PUSH0 PUSH2 0x56B DUP5 DUP3 DUP6 ADD PUSH2 0x535 JUMP JUMPDEST SWAP2 POP POP SWAP3 SWAP2 POP POP JUMP JUMPDEST PUSH0 DUP2 SWAP1 POP SWAP2 SWAP1 POP JUMP JUMPDEST PUSH2 0x586 DUP2 PUSH2 0x574 JUMP JUMPDEST DUP3 MSTORE POP POP JUMP JUMPDEST PUSH0 PUSH1 0x20 DUP3 ADD SWAP1 POP PUSH2 0x59F PUSH0 DUP4 ADD DUP5 PUSH2 0x57D JUMP JUMPDEST SWAP3 SWAP2 POP POP JUMP JUMPDEST PUSH2 0x5AE DUP2 PUSH2 0x574 JUMP JUMPDEST DUP2 EQ PUSH2 0x5B8 JUMPI PUSH0 PUSH0 REVERT JUMPDEST POP JUMP JUMPDEST PUSH0 DUP2 CALLDATALOAD SWAP1 POP PUSH2 0x5C9 DUP2 PUSH2 0x5A5 JUMP JUMPDEST SWAP3 SWAP2 POP POP JUMP JUMPDEST PUSH0 PUSH1 0x20 DUP3 DUP5 SUB SLT ISZERO PUSH2 0x5E4 JUMPI PUSH2 0x5E3 PUSH2 0x4EB JUMP JUMPDEST JUMPDEST PUSH0 PUSH2 0x5F1 DUP5 DUP3 DUP6 ADD PUSH2 0x5BB JUMP JUMPDEST SWAP2 POP POP SWAP3 SWAP2 POP POP JUMP JUMPDEST PUSH2 0x603 DUP2 PUSH2 0x50E JUMP JUMPDEST DUP3 MSTORE POP POP JUMP JUMPDEST PUSH0 PUSH1 0x20 DUP3 ADD SWAP1 POP PUSH2 0x61C PUSH0 DUP4 ADD DUP5 PUSH2 0x5FA JUMP JUMPDEST SWAP3 SWAP2 POP POP JUMP JUMPDEST PUSH0 DUP3 DUP3 MSTORE PUSH1 0x20 DUP3 ADD SWAP1 POP SWAP3 SWAP2 POP POP JUMP JUMPDEST PUSH32 0x496E73756666696369656E742062616C616E6365000000000000000000000000 PUSH0 DUP3 ADD MSTORE POP JUMP JUMPDEST PUSH0 PUSH2 0x666 PUSH1 0x14 DUP4 PUSH2 0x622 JUMP JUMPDEST SWAP2 POP PUSH2 0x671 DUP3 PUSH2 0x632 JUMP JUMPDEST PUSH1 0x20 DUP3 ADD SWAP1 POP SWAP2 SWAP1 POP JUMP JUMPDEST PUSH0 PUSH1 0x20 DUP3 ADD SWAP1 POP DUP2 DUP2 SUB PUSH0 DUP4 ADD MSTORE PUSH2 0x693 DUP2 PUSH2 0x65A JUMP JUMPDEST SWAP1 POP SWAP2 SWAP1 POP JUMP JUMPDEST PUSH32 0x4E487B7100000000000000000000000000000000000000000000000000000000 PUSH0 MSTORE PUSH1 0x11 PUSH1 0x4 MSTORE PUSH1 0x24 PUSH0 REVERT JUMPDEST PUSH0 PUSH2 0x6D1 DUP3 PUSH2 0x574 JUMP JUMPDEST SWAP2 POP PUSH2 0x6DC DUP4 PUSH2 0x574 JUMP JUMPDEST SWAP3 POP DUP3 DUP3 SUB SWAP1 POP DUP2 DUP2 GT ISZERO PUSH2 0x6F4 JUMPI PUSH2 0x6F3 PUSH2 0x69A JUMP JUMPDEST JUMPDEST SWAP3 SWAP2 POP POP JUMP JUMPDEST PUSH0 DUP2 SWAP1 POP SWAP3 SWAP2 POP POP JUMP JUMPDEST POP JUMP JUMPDEST PUSH0 PUSH2 0x712 PUSH0 DUP4 PUSH2 0x6FA JUMP JUMPDEST SWAP2 POP PUSH2 0x71D DUP3 PUSH2 0x704 JUMP JUMPDEST PUSH0 DUP3 ADD SWAP1 POP SWAP2 SWAP1 POP JUMP JUMPDEST PUSH0 PUSH2 0x731 DUP3 PUSH2 0x707 JUMP JUMPDEST SWAP2 POP DUP2 SWAP1 POP SWAP2 SWAP1 POP JUMP JUMPDEST PUSH32 0x436F756C64206E6F742077697468647261770000000000000000000000000000 PUSH0 DUP3 ADD MSTORE POP JUMP JUMPDEST PUSH0 PUSH2 0x76F PUSH1 0x12 DUP4 PUSH2 0x622 JUMP JUMPDEST SWAP2 POP PUSH2 0x77A DUP3 PUSH2 0x73B JUMP JUMPDEST PUSH1 0x20 DUP3 ADD SWAP1 POP SWAP2 SWAP1 POP JUMP JUMPDEST PUSH0 PUSH1 0x20 DUP3 ADD SWAP1 POP DUP2 DUP2 SUB PUSH0 DUP4 ADD MSTORE PUSH2 0x79C DUP2 PUSH2 0x763 JUMP JUMPDEST SWAP1 POP SWAP2 SWAP1 POP JUMP JUMPDEST PUSH0 PUSH1 0x40 DUP3 ADD SWAP1 POP PUSH2 0x7B6 PUSH0 DUP4 ADD DUP6 PUSH2 0x5FA JUMP JUMPDEST PUSH2 0x7C3 PUSH1 0x20 DUP4 ADD DUP5 PUSH2 0x57D JUMP JUMPDEST SWAP4 SWAP3 POP POP POP JUMP JUMPDEST PUSH0 PUSH2 0x7D4 DUP3 PUSH2 0x574 JUMP JUMPDEST SWAP2 POP PUSH2 0x7DF DUP4 PUSH2 0x574 JUMP JUMPDEST SWAP3 POP DUP3 DUP3 ADD SWAP1 POP DUP1 DUP3 GT ISZERO PUSH2 0x7F7 JUMPI PUSH2 0x7F6 PUSH2 0x69A JUMP JUMPDEST JUMPDEST SWAP3 SWAP2 POP POP JUMP JUMPDEST PUSH32 0x4D6178696D756E2042616C616E63652061636365707465643A20352065746800 PUSH0 DUP3 ADD MSTORE POP JUMP JUMPDEST PUSH0 PUSH2 0x831 PUSH1 0x1F DUP4 PUSH2 0x622 JUMP JUMPDEST SWAP2 POP PUSH2 0x83C DUP3 PUSH2 0x7FD JUMP JUMPDEST PUSH1 0x20 DUP3 ADD SWAP1 POP SWAP2 SWAP1 POP JUMP JUMPDEST PUSH0 PUSH1 0x20 DUP3 ADD SWAP1 POP DUP2 DUP2 SUB PUSH0 DUP4 ADD MSTORE PUSH2 0x85E DUP2 PUSH2 0x825 JUMP JUMPDEST SWAP1 POP SWAP2 SWAP1 POP JUMP JUMPDEST PUSH32 0x596F7520617265206E6F7420616C6C6F77656400000000000000000000000000 PUSH0 DUP3 ADD MSTORE POP JUMP JUMPDEST PUSH0 PUSH2 0x899 PUSH1 0x13 DUP4 PUSH2 0x622 JUMP JUMPDEST SWAP2 POP PUSH2 0x8A4 DUP3 PUSH2 0x865 JUMP JUMPDEST PUSH1 0x20 DUP3 ADD SWAP1 POP SWAP2 SWAP1 POP JUMP JUMPDEST PUSH0 PUSH1 0x20 DUP3 ADD SWAP1 POP DUP2 DUP2 SUB PUSH0 DUP4 ADD MSTORE PUSH2 0x8C6 DUP2 PUSH2 0x88D JUMP JUMPDEST SWAP1 POP SWAP2 SWAP1 POP JUMP INVALID LOG2 PUSH5 0x6970667358 0x22 SLT KECCAK256 0xBB MCOPY SIGNEXTEND 0xE6 SWAP15 EXTCODEHASH ADDMOD 0xE2 SGT 0xE8 DUP1 0x21 POP 0x29 0x24 DUP11 0xE6 KECCAK256 0xD2 0x2B 0xAD 0xE5 DUP9 PREVRANDAO PC 0x28 0xAC 0xDC 0xE 0xE4 0xF DUP8 PUSH5 0x736F6C6343 STOP ADDMOD SHR STOP CALLER "
				},
				"gasEstimates": {
					"creation": {
						"codeDepositCost": "461400",
						"executionCost": "infinite",
						"totalCost": "infinite"
					},
					"external": {
						"admin()": "2596",
						"depositEther()": "infinite",
						"maxBalance()": "2446",
						"modifyMaxBalance(uint256)": "24749",
						"userBalance(address)": "2780",
						"withdrawEther(uint256)": "infinite"
					}
				},
				"methodIdentifiers": {
					"admin()": "f851a440",
					"depositEther()": "98ea5fca",
					"maxBalance()": "73ad468a",
					"modifyMaxBalance(uint256)": "a2ccd6ba",
					"userBalance(address)": "0103c92b",
					"withdrawEther(uint256)": "3bed33ce"
				}
			},
			"storageLayout": {
				"storage": [
					{
						"astId": 3,
						"contract": "Bloque 5 Remix/CryptoBank/CryptoBank.sol:CryptoBank",
						"label": "maxBalance",
						"offset": 0,
						"slot": "0",
						"type": "t_uint256"
					},
					{
						"astId": 5,
						"contract": "Bloque 5 Remix/CryptoBank/CryptoBank.sol:CryptoBank",
						"label": "admin",
						"offset": 0,
						"slot": "1",
						"type": "t_address"
					},
					{
						"astId": 9,
						"contract": "Bloque 5 Remix/CryptoBank/CryptoBank.sol:CryptoBank",
						"label": "userBalance",
						"offset": 0,
						"slot": "2",
						"type": "t_mapping(t_address,t_uint256)"
					}
				],
				"types": {
					"t_address": {
						"encoding": "inplace",
						"label": "address",
						"numberOfBytes": "20"
					},
					"t_mapping(t_address,t_uint256)": {
						"encoding": "mapping",
						"key": "t_address",
						"label": "mapping(address => uint256)",
						"numberOfBytes": "32",
						"value": "t_uint256"
					},
					"t_uint256": {
						"encoding": "inplace",
						"label": "uint256",
						"numberOfBytes": "32"
					}
				}
			},
			"userdoc": {
				"kind": "user",
				"methods": {},
				"version": 1
			}
		}
	}
}